:020000001329C2
:1000060083120313FD01F801700803190034740606
:10001600FA00FA1BFD09FB01F41F1328F409F40A80
:10002600F01F1728F009F00A70087404FA00FA1B8A
:100036003B287408F802F00D700DF80D7408F807E7
:10004600F00D0630FC00700DF80D74087018F802FB
:10005600701CF807F00DFC0B2628701CF8077B189F
:100066004928FD1F0034F009F00AF809F80A00349F
:10007600F41F4628F01B43287008F800F0013428C6
:10008600F001F00A0034F009FB0A1C28F80A74088B
:100096007802031D3428F801F00AF01F3428FF34D3
:0200A600080050
:0E00A8008312031324088A0023088200080034
:1000B6000A3083120313F4002508F00003207808A1
:1000C600F0007008A6000A30F4002508F0000320AE
:1000D6007008A700091C9528891895280230870002
:1000E600260886000230FB000430FC00BA30FD0012
:1000F600FD0B7B28FC0B7B28FB0B7B2800000130CB
:100106008700270886000230FB000430FC00BA3066
:10011600FD00FD0B8C28FC0B8C28FB0B8C280000AB
:100126008701BC28091CBC28891CBC28083087000C
:10013600260886000230FB000430FC00BA30FD00C1
:10014600FD0BA328FC0BA328FB0BA32800000430FF
:100156008700270886000230FB000430FC00BA3016
:10016600FD00FD0BB428FC0BB428FB0BB4280000E3
:0401760087010800F5
:10017A0054208A110A128000840AA30A0319A40AC5
:08018A00F003031DBD2808006D
:100192000A3083120313F4002508F00003207808C4
:1001A200F0007008A7000A30F4002508F0000320D0
:1001B2007008A60007100718E0280711E1280715A4
:1001C20087148718E6288711E728871527088600ED
:1001D2000230FB000430FC00BA30FD00FD0BEF28BA
:1001E200FC0BEF28FB0BEF28000007140718FB2875
:1001F2000711FC2807158710871801298711022982
:100202008715260886000230FB000430FC00BA3055
:10021200FD00FD0B0A29FC0B0A29FB0B0A29000031
:040222008701080048
:1002260083120313A001A101A201063083169F00C9
:1002360087010708860006088500FF308800080841
:10024600890083128701FF30850009188D298515DD
:1002560005150F30A2008030003AF00080302206EB
:100266007002031857290530A0002008003C031827
:100276005529051080300C3AF000803022067002B5
:1002860003184629051280300C3AF0008030220609
:100296007002031C5029051685122208A500C920E4
:1002A600A0033829A2032E29851605140330A200BF
:1002B6008030003AF000803022067002031872295E
:1002C6000530A0002008003C031870298511851010
:1002D6002208A500C920A0036529A2035B2985146D
:1002E6001430A2008030003AF000803022067002FE
:1002F60003188C290530A0002008003C03188A2921
:10030600851105112208A500C920A0037F29A20393
:1003160075292829A1018918B829091CB829210895
:10032600003A031DB229F73085000330A200803061
:10033600003AF0008030220670020318B02905301A
:10034600A0002008003C0318AE2985102208A5004D
:100356005B20A003A429A2039A29F7308500013067
:10036600A1008701F33085008E29A101891CE429AB
:10037600091CE4292108003A031DDE29FE30850008
:100386000330A2008030003AF0008030220670026E
:100396000318DD290530A0002008003C0318DB29DE
:1003A60005122208A5005B200130A100A003CF2979
:1003B600A203C52905120130A1008701DE308500A0
:0603C600B9292429E529F4
:02400E004A2F37
:00000001FF
